{
  "contractName": "simpleAuction",
  "abi": [
    {
      "inputs": [
        {
          "internalType": "uint256",
          "name": "_biddingTime",
          "type": "uint256"
        },
        {
          "internalType": "address payable",
          "name": "_beneficiary",
          "type": "address"
        },
        {
          "internalType": "uint256",
          "name": "_PriceStart",
          "type": "uint256"
        }
      ],
      "stateMutability": "nonpayable",
      "type": "constructor"
    },
    {
      "anonymous": false,
      "inputs": [
        {
          "indexed": false,
          "internalType": "address",
          "name": "winner",
          "type": "address"
        },
        {
          "indexed": false,
          "internalType": "uint256",
          "name": "amount",
          "type": "uint256"
        }
      ],
      "name": "auctionEnded",
      "type": "event"
    },
    {
      "anonymous": false,
      "inputs": [
        {
          "indexed": false,
          "internalType": "address",
          "name": "bidder",
          "type": "address"
        },
        {
          "indexed": false,
          "internalType": "uint256",
          "name": "amount",
          "type": "uint256"
        }
      ],
      "name": "highestBidIncrease",
      "type": "event"
    },
    {
      "inputs": [],
      "name": "auctionEndTime",
      "outputs": [
        {
          "internalType": "uint256",
          "name": "",
          "type": "uint256"
        }
      ],
      "stateMutability": "view",
      "type": "function"
    },
    {
      "inputs": [],
      "name": "beneficiary",
      "outputs": [
        {
          "internalType": "address payable",
          "name": "",
          "type": "address"
        }
      ],
      "stateMutability": "view",
      "type": "function"
    },
    {
      "inputs": [],
      "name": "highestBid",
      "outputs": [
        {
          "internalType": "uint256",
          "name": "",
          "type": "uint256"
        }
      ],
      "stateMutability": "view",
      "type": "function"
    },
    {
      "inputs": [],
      "name": "highestBidder",
      "outputs": [
        {
          "internalType": "address",
          "name": "",
          "type": "address"
        }
      ],
      "stateMutability": "view",
      "type": "function"
    },
    {
      "inputs": [
        {
          "internalType": "address",
          "name": "",
          "type": "address"
        }
      ],
      "name": "pendingReturns",
      "outputs": [
        {
          "internalType": "uint256",
          "name": "",
          "type": "uint256"
        }
      ],
      "stateMutability": "view",
      "type": "function"
    },
    {
      "inputs": [],
      "name": "bid",
      "outputs": [],
      "stateMutability": "payable",
      "type": "function"
    },
    {
      "inputs": [],
      "name": "withdraw",
      "outputs": [
        {
          "internalType": "bool",
          "name": "",
          "type": "bool"
        }
      ],
      "stateMutability": "nonpayable",
      "type": "function"
    },
    {
      "inputs": [],
      "name": "auctionEnd",
      "outputs": [],
      "stateMutability": "nonpayable",
      "type": "function"
    },
    {
      "inputs": [],
      "name": "getBalance",
      "outputs": [
        {
          "internalType": "uint256",
          "name": "",
          "type": "uint256"
        }
      ],
      "stateMutability": "view",
      "type": "function"
    }
  ],
  "bytecode": "0x60806040526000600460146101000a81548160ff0219169083151502179055503480156200002c57600080fd5b5060405162000d9e38038062000d9e83398181016040528101906200005291906200015b565b816000806101000a81548173ffffffffffffffffffffffffffffffffffffffff021916908373ffffffffffffffffffffffffffffffffffffffff1602179055508242620000a09190620001e6565b6002819055508060018190555050505062000221565b600080fd5b6000819050919050565b620000d081620000bb565b8114620000dc57600080fd5b50565b600081519050620000f081620000c5565b92915050565b600073ffffffffffffffffffffffffffffffffffffffff82169050919050565b60006200012382620000f6565b9050919050565b620001358162000116565b81146200014157600080fd5b50565b60008151905062000155816200012a565b92915050565b600080600060608486031215620001775762000176620000b6565b5b60006200018786828701620000df565b93505060206200019a8682870162000144565b9250506040620001ad86828701620000df565b9150509250925092565b7f4e487b7100000000000000000000000000000000000000000000000000000000600052601160045260246000fd5b6000620001f382620000bb565b91506200020083620000bb565b92508282019050808211156200021b576200021a620001b7565b5b92915050565b610b6d80620002316000396000f3fe6080604052600436106100865760003560e01c806338af3eed1161005957806338af3eed146101145780633ccfd60b1461013f5780634b449cba1461016a57806391f9015714610195578063d57bde79146101c057610086565b806312065fe01461008b5780631998aeef146100b657806326b387bb146100c05780632a24f46c146100fd575b600080fd5b34801561009757600080fd5b506100a06101eb565b6040516100ad91906106eb565b60405180910390f35b6100be6101f3565b005b3480156100cc57600080fd5b506100e760048036038101906100e29190610769565b6103c9565b6040516100f491906106eb565b60405180910390f35b34801561010957600080fd5b506101126103e1565b005b34801561012057600080fd5b50610129610559565b60405161013691906107b7565b60405180910390f35b34801561014b57600080fd5b5061015461057d565b60405161016191906107ed565b60405180910390f35b34801561017657600080fd5b5061017f6106a0565b60405161018c91906106eb565b60405180910390f35b3480156101a157600080fd5b506101aa6106a6565b6040516101b79190610817565b60405180910390f35b3480156101cc57600080fd5b506101d56106cc565b6040516101e291906106eb565b60405180910390f35b600047905090565b600254421115610238576040517f08c379a000000000000000000000000000000000000000000000000000000000815260040161022f9061088f565b60405180910390fd5b600354341161027c576040517f08c379a000000000000000000000000000000000000000000000000000000000815260040161027390610921565b60405180910390fd5b6000600354146103015760035460056000600460009054906101000a900473ffffffffffffffffffffffffffffffffffffffff1673ffffffffffffffffffffffffffffffffffffffff1673ffffffffffffffffffffffffffffffffffffffff16815260200190815260200160002060008282546102f99190610970565b925050819055505b600154341015610346576040517f08c379a000000000000000000000000000000000000000000000000000000000815260040161033d90610a16565b60405180910390fd5b33600460006101000a81548173ffffffffffffffffffffffffffffffffffffffff021916908373ffffffffffffffffffffffffffffffffffffffff160217905550346003819055507f123a2a99bd109b51e435e65e10a7230bdbd13b8a0fa2f7ee4ef740da1f86f0eb33346040516103bf929190610a36565b60405180910390a1565b60056020528060005260406000206000915090505481565b600460149054906101000a900460ff1615610431576040517f08c379a000000000000000000000000000000000000000000000000000000000815260040161042890610aab565b60405180910390fd5b600254421015610476576040517f08c379a000000000000000000000000000000000000000000000000000000000815260040161046d90610b17565b60405180910390fd5b6001600460146101000a81548160ff0219169083151502179055507f6e0e2174dbf7b77c08b6f9a2799b9feda84a6d54a5644864582040100a47d4c5600460009054906101000a900473ffffffffffffffffffffffffffffffffffffffff166003546040516104e6929190610a36565b60405180910390a160008054906101000a900473ffffffffffffffffffffffffffffffffffffffff1673ffffffffffffffffffffffffffffffffffffffff166108fc6003549081150290604051600060405180830381858888f19350505050158015610556573d6000803e3d6000fd5b50565b60008054906101000a900473ffffffffffffffffffffffffffffffffffffffff1681565b600080600560003373ffffffffffffffffffffffffffffffffffffffff1673ffffffffffffffffffffffffffffffffffffffff1681526020019081526020016000205490506000811115610697576000600560003373ffffffffffffffffffffffffffffffffffffffff1673ffffffffffffffffffffffffffffffffffffffff16815260200190815260200160002050503373ffffffffffffffffffffffffffffffffffffffff166108fc829081150290604051600060405180830381858888f19350505050156106965780600560003373ffffffffffffffffffffffffffffffffffffffff1673ffffffffffffffffffffffffffffffffffffffff16815260200190815260200160002081905550600091505061069d565b5b60019150505b90565b60025481565b600460009054906101000a900473ffffffffffffffffffffffffffffffffffffffff1681565b60035481565b6000819050919050565b6106e5816106d2565b82525050565b600060208201905061070060008301846106dc565b92915050565b600080fd5b600073ffffffffffffffffffffffffffffffffffffffff82169050919050565b60006107368261070b565b9050919050565b6107468161072b565b811461075157600080fd5b50565b6000813590506107638161073d565b92915050565b60006020828403121561077f5761077e610706565b5b600061078d84828501610754565b91505092915050565b60006107a18261070b565b9050919050565b6107b181610796565b82525050565b60006020820190506107cc60008301846107a8565b92915050565b60008115159050919050565b6107e7816107d2565b82525050565b600060208201905061080260008301846107de565b92915050565b6108118161072b565b82525050565b600060208201905061082c6000830184610808565b92915050565b600082825260208201905092915050565b7f506869656e2064617520676961206b6574207468756300000000000000000000600082015250565b6000610879601683610832565b915061088482610843565b602082019050919050565b600060208201905081810360008301526108a88161086c565b9050919050565b7f476961206375612062616e207468617020686f6e206769612063616f206e686160008201527f7400000000000000000000000000000000000000000000000000000000000000602082015250565b600061090b602183610832565b9150610916826108af565b604082019050919050565b6000602082019050818103600083015261093a816108fe565b9050919050565b7f4e487b7100000000000000000000000000000000000000000000000000000000600052601160045260246000fd5b600061097b826106d2565b9150610986836106d2565b925082820190508082111561099e5761099d610941565b5b92915050565b7f476961206375612062616e20706861692063616f20686f6e20676961206b686f60008201527f69206469656d0000000000000000000000000000000000000000000000000000602082015250565b6000610a00602683610832565b9150610a0b826109a4565b604082019050919050565b60006020820190508181036000830152610a2f816109f3565b9050919050565b6000604082019050610a4b6000830185610808565b610a5860208301846106dc565b9392505050565b7f506869656e206461752067696120646120636f20746865206b65742074687563600082015250565b6000610a95602083610832565b9150610aa082610a5f565b602082019050919050565b60006020820190508181036000830152610ac481610a88565b9050919050565b7f506869656e20646175206769612063687561206b657420746875630000000000600082015250565b6000610b01601b83610832565b9150610b0c82610acb565b602082019050919050565b60006020820190508181036000830152610b3081610af4565b905091905056fea26469706673582212209f1f8fe29855b249bfa7729c352b7d4cfe6774f4aed5a76bf26ab0e8505e0f9764736f6c63430008110033",
  "immutableReferences": {},
  "source": "// SPDX-License-Identifier: MIT\r\npragma solidity ^0.8.7;\r\n\r\ncontract simpleAuction {\r\n    //variable\r\n    address payable public beneficiary;\r\n    uint PriceStart;\r\n    uint public auctionEndTime;\r\n    uint public highestBid;\r\n    address public highestBidder;\r\n\r\n    bool ended = false;\r\n\r\n    mapping(address => uint) public pendingReturns;\r\n\r\n    event highestBidIncrease(address bidder, uint amount);\r\n    event auctionEnded(address winner, uint amount);\r\n\r\n    constructor (uint _biddingTime, address payable _beneficiary, uint _PriceStart){\r\n        beneficiary = _beneficiary;\r\n        auctionEndTime = block.timestamp + _biddingTime;\r\n        PriceStart = _PriceStart;\r\n    }\r\n    \r\n    function bid() public payable {\r\n        if (block.timestamp > auctionEndTime ){\r\n            revert(\"Phien dau gia ket thuc\");\r\n        }\r\n\r\n        if (msg.value <= highestBid){\r\n            revert(\"Gia cua ban thap hon gia cao nhat\");\r\n        }\r\n\r\n        if (highestBid != 0){\r\n            pendingReturns[highestBidder] += highestBid;\r\n        }\r\n\r\n        if (msg.value < PriceStart ){\r\n            revert(\"Gia cua ban phai cao hon gia khoi diem\");\r\n        }\r\n        \r\n        highestBidder = msg.sender;\r\n        highestBid = msg.value;\r\n        emit highestBidIncrease(msg.sender, msg.value);\r\n    }\r\n\r\n    function withdraw() public returns(bool){\r\n        uint amount = pendingReturns[msg.sender];\r\n        if (amount > 0){\r\n            pendingReturns[msg.sender] == 0;\r\n\r\n            if(payable(msg.sender).send(amount)){\r\n                pendingReturns[msg.sender] = amount;\r\n                return false;\r\n            }\r\n        }\r\n        return true;\r\n    }\r\n\r\n    function auctionEnd() public{\r\n        if (ended){\r\n            revert(\"Phien dau gia da co the ket thuc\");\r\n        }\r\n        if(block.timestamp < auctionEndTime){\r\n            revert(\"Phien dau gia chua ket thuc\");\r\n        }\r\n\r\n        ended = true;\r\n        emit auctionEnded(highestBidder, highestBid);\r\n\r\n        beneficiary.transfer(highestBid);\r\n    }\r\n\r\n    function getBalance() public view returns(uint){\r\n        return address(this).balance;\r\n    }\r\n}    ",
  "sourcePath": "C:\\Users\\VietAi\\OneDrive\\My tnh\\ConnectSM\\contracts\\AuctionSimple.sol",
  "compiler": {
    "name": "solc",
    "version": "0.8.17+commit.8df45f5f.Emscripten.clang"
  },
  "schemaVersion": "3.4.10",
  "updatedAt": "2022-10-24T15:46:51.394Z",
  "devdoc": {
    "kind": "dev",
    "methods": {},
    "version": 1
  },
  "userdoc": {
    "kind": "user",
    "methods": {},
    "version": 1
  }
}